:020000040800F2
:10000000C0CC0120610300083727000861230008E5
:1000100035270008D91B00085D3E000800000000DD
:10002000000000000000000000000000A102000825
:10003000A51C000800000000FD020008553600085D
:100040007B0300087B0300087B030008B132000833
:100050007B0300087B030008A91C00087B03000841
:10006000E51C0008211D00085D1D00087B03000839
:100070007B0300087B0300087B0300087B03000868
:100080007B0300087B0300087B0300087B03000858
:100090007B0300087B0300087B0300087B03000848
:1000A0007B0300087B0300087B0300087B03000838
:1000B0007B030008393A00087B0300087B03000833
:1000C0007B0300087B0300087B0300087B03000818
:1000D0007B0300088D3B0008093C00089D3C00089C
:1000E0007B0300081D2F00087B0300087B0300082A
:1000F0007B0300087B0300087B0300087B030008E8
:100100007B0300087B0300087B0300087B030008D7
:100110007B0300087B0300087B0300087B030008C7
:100120007B0300087B0300087B0300087B030008B7
:100130007B0300087B0300087B0300087B030008A7
:100140007B0300087B0300087B0300087B03000897
:100150007B0300087B0300087B0300087B03000887
:100160007B0300087B0300087B0300087B03000877
:100170007B0300087B0300087B0300087B03000867
:100180007B0300087B03000800F002F800F079F818
:100190000AA090E8000C82448344AAF10107DA45E2
:1001A00001D100F06EF8AFF2090EBAE80F0013F0BB
:1001B000010F18BFFB1A43F00103184778FF040032
:1001C00098FF04000A444FF0000C10F8013B13F0B4
:1001D000070408BF10F8014B1D1108BF10F8015BA0
:1001E000641E05D010F8016B641E01F8016BF9D193
:1001F00013F0080F1EBF10F8014BAD1C0C1B09D1EA
:100200006D1E58BF01F801CBFAD505E014F8016B5B
:1002100001F8016B6D1EF9D59142D6D370470000ED
:100220000023002400250026103A28BF78C1FBD8FF
:10023000520728BF30C148BF0B607047662929F0BC
:100240002D84642900F05881782900F09181632978
:1002500000F0F586732900F0FA86002070471FB57C
:1002600029F017FC9DE8030000F0FCFB00F02CFFD8
:1002700004000020002129F0B3F8E0601FBD10B594
:1002800010BD01F048F81146FFF7E9FF22F0DCFC51
:1002900001F066F803B4FFF7F2FF03BC01F096F833
:1002A0002C4B19680868B0E8F04F80F30988BFF359
:1002B0006F8F4FF0000080F311887047000000003E
:1002C00008480068006880F308884FF0000080F359
:1002D000148862B661B6BFF34F8FBFF36F8F00DF34
:1002E00000BF00BF08ED00E0DFF80C00016841F43A
:1002F00070010160704700BF88ED00E0EFF30980F6
:10030000BFF36F8F134B1A681EF0100F08BF20ED5C
:10031000108A20E9F04F106009B44FF0500080F3CC
:100320001188BFF34F8FBFF36F8F28F0B9F94FF0EB
:10033000000080F3118809BC19680868B0E8F04F24
:100340001EF0100F08BFB0EC108A80F30988BFF3CD
:100350006F8F70472C040020EFF30580704700007A
:100360000948804709480047FEE7FEE7FEE7FEE749
:10037000FEE7FEE7FEE7FEE7FEE7FEE70448054985
:10038000054A064B704700008136000889010008C5
:10039000C0C60120C0CC0120C0C80120C0C80120B7
:1003A00070B5A0FB0140B4F1805170F1000024BF92
:1003B000002070BD204600F084FB05001CBF2146D4
:1003C00000F05CFE284670BD70B50446051F00F0C5
:1003D0002DFB0068002C14BF446870BD002C18BFB2
:1003E000AC423CBF20466468F8D301680A18AA42B0
:1003F00018BF456003D12A6805461144016028688A
:100400004119A1421CBF6C6070BD616869602168C0
:100410000844286070BD00000FB4044910B503AA59
:10042000029800F019FE10BC5DF814FB10000020CB
:100430000FB41CB5074B06AA7B446946009005988B
:1004400000F0DBFD0020694600F0EAFD1CBC5DF811
:1004500014FB0000E50B000070B5044685690068D8
:10046000C10601D5302600E02026C00707D070BDA8
:10047000D4E9012130469047206A401C20626D1E5D
:10048000F6D570BD70B5044685690078C00707D100
:1004900070BDD4E9012120209047206A401C2062D1
:1004A0006D1EF6D570BD70B50C460546012A05D007
:1004B0002878800600D5EA69002302E0012305E0E0
:1004C0005B1C934202D2E05C0028F9D1A869E618CF
:1004D000C01AA861286A184428622846FFF7BCFFA2
:1004E00004E0D5E9012114F8010B9047B442F8D398
:1004F0002846FFF7C7FF70BD2DE9F04106460024EE
:1005000010687529314616A510D0AFF30080002879
:1005100002DA404213A507E031688A0701D512A527
:1005200002E0490704D511A5012401E0AFF30080E2
:1005300000210A2206F1240709E0B0FBF2FCB0FB1F
:10054000F2F302FB1C00303078541846491C002896
:10055000F3D123462A463046BDE8F04100F0E0BA28
:10056000000000002D0000002B0000002000000013
:1005700070B504460D4621461068AFF3008021880F
:10058000090502D50F4A7A4402E00E4A7A440E3237
:10059000002104F1240305E000F00F060009965D38
:1005A0005E54491C0028F7D120780023000704D5A9
:1005B000702D02D009B1022311322046BDE87040EF
:1005C00000F0AEBA96F404002DE9F05F89460446C7
:1005D0004FF0000ADFF824B1FB44C0F820A0204609
:1005E000E168884700287DD0252806D0D4E901217C
:1005F0009047206A401C2062F1E700255F462046B4
:10060000E16888472028064607DB312E05D2B81955
:1006100010F8200C08B10543F1E7A80701D525F033
:100620000405C4F81CA00027C4F818A02A2E09D07D
:10063000304603F071FC38B304EB8708303EC8F84D
:10064000186019E059F8041B204604EB87029161F9
:10065000E1688847012F064618D1E069002820DAB2
:1006600025F020051DE0D8F8180000EB800006EB0F
:1006700040003038C8F818002046E1688847064630
:1006800003F04AFC0028EED1012F0AD02E2E08D10B
:100690002046E16888477F1C0646022F45F020056A
:1006A000C4DBA069002803DA404245F00105A061DF
:1006B000E80701D025F01005A6B1A6F141001928E0
:1006C00002D8203645F400654A463146204625606A
:1006D0004D46FFF7B3FD60B1012807D0ED1D25F0B1
:1006E000070000E007E000F1080978E705F10409D8
:1006F00075E730467AE7206ABDE8F09F6CF40400A5
:1007000030B505460B462A4613F8014B12F8010B8B
:1007100008B1A042F8D01CB1002802D06D1CF1E74E
:10072000284630BD40EA010310B59B070FD1042ACB
:100730000DD310C808C9121F9C42F8D020BA19BAAC
:10074000884201D9012010BD4FF0FF3010BD1AB111
:10075000D30703D0521C07E0002010BD10F8013B66
:1007600011F8014B1B1B07D110F8013B11F8014B8D
:100770001B1B01D1921EF1D1184610BD40EA0103A6
:10078000024630B59B0710D14FF0013400E008C29B
:1007900008C91D1B9D4315EAC41FF8D013F0FF01C3
:1007A00002F8011B0DD01B0AF8E711F8013B002BE2
:1007B00002F8013B05D011F8013B002B02F8013B88
:1007C000F3D130BD10B5431C02E010F8011B71B12C
:1007D0008107FAD14FF0013202C88C1A8C4314EA17
:1007E000C211F9D0C01A0A0603D0C01E10BDC01A2B
:1007F00010BD0A0401D0801E10BD0902FCD0401EAD
:1008000010BD032A40F2308010F0030C00F0158078
:1008100011F8013BBCF1020F624498BF11F801CB03
:1008200000F8013B38BF11F8013BA2F1040298BF68
:1008300000F801CB38BF00F8013B11F0030300F0D2
:100840002580083AC0F0088051F8043B083A51F876
:1008500004CBA0E80810F5E7121D5CBF51F8043B7B
:1008600040F8043BAFF30080D20724BF11F8013BEE
:1008700011F801CB48BF11F8012B24BF00F8013B50
:1008800000F801CB48BF00F8012B704710B5203AA3
:10089000C0F00B80B1E81850203AA0E81850B1E839
:1008A0001850A0E81850BFF4F5AF5FEA027C24BFEF
:1008B000B1E81850A0E8185044BF18C918C0BDE8E6
:1008C00010405FEA827C24BF51F8043B40F8043BAF
:1008D00008BF7047D20728BF31F8023B48BF11F864
:1008E000012B28BF20F8023B48BF00F8012B7047BE
:1008F00002F0FF0343EA032242EA024200F0C0BBD7
:100900004FF0000200B5134694469646203922BFA8
:10091000A0E80C50A0E80C50B1F12001BFF4F7AFF3
:10092000090728BFA0E80C5048BF0CC05DF804EBD5
:10093000890028BF40F8042B08BF704748BF20F843
:10094000022B11F0804F18BF00F8012B704710B533
:10095000044610F0030F08BF11F0030F40F015809C
:100960004FF0013E121FC0F20E8051F8043BA3EB82
:100970000E0C2CEA030C1CEACE1C08BF40F8043B0A
:10098000F0D0A1F1040102F10402521E08DB11F8BB
:10099000013B002B00F8013BF7D1114600F06EFB44
:1009A000204610BD4FF0013C50F8042B51F8043B99
:1009B0009A4221D1A2EB0C03934313EACC1317D133
:1009C00050F8042B51F8043B9A4215D1A2EB0C03CA
:1009D000934313EACC130BD150F8042B51F8043B8A
:1009E0009A4209D1A2EB0C03934313EACC13DBD058
:1009F0004FF00000704700BFD01A01BAB1FA81F180
:100A000001F0180122FA01F0CB40C1F12001DBB264
:100A1000C0B2C01A2CFA01F3D11A914311EAC311E2
:100A2000E6D1704770477047704700000048704734
:100A300064C60120704770477047704738B5044658
:100A40000A4600206946AFF30080002808BF38BD81
:100A500002460099204600F042FB012038BD0120EB
:100A600000F052BCF8B5AFF30080054600200C46FC
:100A7000102000BF0646A819A0420DD9324669468B
:100A80000020AFF30080070008BF00F03DFC009895
:100A9000A04218BF0546C419FFF7C8FF0560074606
:100AA000F01D20F007004619284600F011FBB44263
:100AB00008BFF8BDA21B31463868BDE8F84000F019
:100AC0000EBB70B50646FFF7B1FF056806F10B00D7
:100AD00020F00704B4429CBF002070BD2B466A681A
:100AE000BAB11068A04210D304F1080188423CBF9B
:100AF0005068586007D35168101941601168091B8C
:100B0000016058601460101D70BD13465268002AC1
:100B1000E7D121462846FFF791FF0028DED170BDBE
:100B20002DE9F0470D4699469246044600F1240807
:100B30000168880604D5E06921F01001216000E019
:100B40000120A84201DD471B00E00027A1697A19B6
:100B500002EB0900081AA0612078C00602D42046E2
:100B6000FFF77AFC002608E0D4E901211AF8060014
:100B70009047206A401C761C20624E45F4DB2078AA
:100B8000C0060AD52046FFF767FC06E0D4E901213C
:100B900030209047206A401C2062381EA7F10107D0
:100BA000F4DC07E0D4E9012118F805009047206A39
:100BB000401C2062281EA5F10105F3DC2046FFF74A
:100BC00061FC2078000602D50220BDE8F0870120F4
:100BD000FBE770472DE9FF4F0C461E464FF0FF37ED
:100BE0008BB0D2E90001DDF860800A908A46C1F33B
:100BF0000A5505B93D46002108464FF00000BAF1FC
:100C0000000F00F4400005DA00EB80004FF44001D3
:100C100001EA50004FEA9059B9F1010F00DDB946E1
:100C20000A9850EA4A000ED044F61050A5F2FF355B
:100C300045432F14B8F1000F1ED07542291E1EDD4A
:100C4000C9F100021CE0B8F1010F4FF0000001D023
:100C5000302103E0F24305E02154401CB042FBDBAD
:100C600030460022002121540B99C1F80880C1E9C7
:100C700000200FB0BDE8F08FBD1B6D1CDEE74A46BB
:100C800000DA694206A800F0C9FA06AB93E807004B
:100C900003AB83E8070050460A9900F0BEFB8DE8DD
:100CA0000700A0F500501F3800900398002D0ADDC2
:100CB00042F21F014A460844002303A903906846F4
:100CC00000F027FE09E0A0F500504A461F38002337
:100CD00003A90390684600F031FE8DE80700000488
:100CE000000C03D04FF0FF30410800E01046B8F18F
:100CF000000F03D00022009215461EE0751E05D499
:100D000000F007FA303262556D1EF9D5B346012264
:100D1000084302D000227F1C04E02078302801D153
:100D200000227F1E002A099784D01DE0112D07DACA
:100D300000F0EFF9303262556D1C50EA0102F5D136
:100D4000084302D00098C8B10EE00021681E05E0FB
:100D5000235C625C63542254401E491C8142F7DBD1
:100D6000AB46A81B401E0990002004F80B000B980E
:100D7000099AC0F80880C0E9002B7AE711264FF0E5
:100D8000000857E72DE9F04F88460446D21D22F0AF
:100D9000070191B0D1E90001CDE90A0103F0A4F8FF
:100DA00002460B98C00F01D02D2007E02068810774
:100DB00001D52B2002E0202101EAC000032A09907E
:100DC00001D0072A05DB03464146204600F0E6F93C
:100DD0000BE12078800601D5E06900E00620B8F13B
:100DE000650F814606D0B8F1660F18D0B8F1670FCD
:100DF00070D131E00020B9F1110F009001DB112317
:100E000001E009F101030AAA01A90CA8FFF7E2FE1B
:100E1000DDE90C70002609F10105834647E0012059
:100E20004B4600904FF000470AAA01A90CA8FFF713
:100E3000D1FEDDE90DB00C995D46002610B909F12F
:100E400001000D18B9EB050003D4C0F1FF3609F11C
:100E50000105A5EB09002BE0B9F1010F01DA4FF014
:100E600001090020B9F1110F0090484601DD11235E
:100E700000E003460AAA01A90CA8FFF7ABFEDDE9D2
:100E80000C704D4600268346207800070AD4AB45F7
:100E900000DA5D4601A8012D04DD411911F8011C9D
:100EA000302907D04F4502DA17F1040F04DA012088
:100EB00082460FE06D1EEEE7002F02DCED1B3E4484
:100EC00003E0781CA84200DD7D1CB81B00F1010A7C
:100ED0004FF000472078000703D4AA4501DB4FF00C
:100EE000FF3A0021B7F1004F0DF143088DF8431090
:100EF00024D002202B23002F01DA7F422D230A2148
:100F0000021EA0F1010000DC5FB197FBF1FC97FB32
:100F1000F1F201FB1C7C17460CF1300C08F801CDF6
:100F2000EEE7A8F1010003702188090501D54521EC
:100F300000E06521A0F1010800F8011C09980FA943
:100F4000A1EB0807FF1D00B10120411901EBEA7078
:100F5000A1693844081A401EA0612078C00602D456
:100F60002046FFF779FA099828B1D4E90121904782
:100F7000206A401C20622078C00622D52046FFF758
:100F80006BFA1EE0002E04DBB34502DD01A8805D94
:100F900000E03020D4E901219047206A401C206203
:100FA000761CAAF101005FEA000A0AD100F08CF871
:100FB000C0680168405CD4E901219047206A401C68
:100FC0002062281EA5F10105DCDC07E0D4E901213F
:100FD00018F8010B9047206A401C2062381EA7F1C8
:100FE0000107F3DC2046FFF74DFA032011B041E67C
:100FF00001694A1C02610878704700B58FB0CDE9DD
:1010000001310021059105497944CDE903101146CC
:101010006846FFF7D9FA0FB000BD0000E5FFFFFFFB
:101020000A6802F8010B0A60704710B5436913B1F2
:10103000AFF3008001E0FFF736FA012010BD12780F
:1010400000F124010A7000224A700122EDE71168C4
:101050004FF0FF32E9E70000074B70B50D467B44C7
:10106000FFF7CBFF0446284600F04AF910B14FF0D5
:10107000FF3070BD204670BDFFD500004FF000026C
:101080000429C0F0128010F0030C3FF43BACCCF10B
:10109000040CBCF1020F18BF00F8012BA8BF20F808
:1010A000022BA1EB0C01FFF72DBC5FEAC17C24BF32
:1010B00000F8012B00F8012B48BF00F8012B704706
:1010C000004870475CC60120004870477CC601207C
:1010D00000210160C0E901107047102070470346ED
:1010E00040688C46002818BF88423CBF03464068D1
:1010F000F8D318681844884207D00CF1030020F098
:101100000700001D411A521A0146081D0A60FFF728
:101110005BB930B5B0F10A024FEA900E71F10003ED
:101120004EEA817EB0EB0E0061EB91014FEA101E9A
:101130004EEA017E10EB0E0041EB11114FEA102E2A
:101140004EEA016E10EB0E0041EB11214FEA104EFA
:101150004EEA014E10EB0E0041EB1141401841F1F7
:1011600000014FEAD00040EA41704FEAD10110EB94
:1011700080054FEA810444EA907444EB01046D1940
:1011800044EB0404521BA3414FF0000348BF0A3252
:1011900000D530BD401C41F1000130BD2DE9F041CA
:1011A0001F46044603260168072A01F4006004DB99
:1011B00008B116A505E016A503E008B115A500E0E5
:1011C00015A521F010002060A069C01EA0610FB11C
:1011D000401EA0612046FFF73FF94FB1D4E901213D
:1011E00038469047206A401C2062C01C206206E0FE
:1011F000206AFAE7D4E9012115F8010B9047761E21
:10120000F8D22046FFF73EF9BDE8F0814E414E008E
:101210006E616E00494E4600696E66002DE9F0472A
:10122000814616468AB0354878440DC88DE80D00D1
:1012300032487844801C03AC0DC884E80D0041F6A8
:101240009B300844372190FBF1F290FBF1F5A5F1BA
:10125000800501FB12041B3C02D56442012000E022
:101260000020DFF898A080460027FA44AAF1BE0AC1
:101270000EE0E0070AD03246684607EB470101233B
:101280000AEB810100F05AFB8DE8070064107F1C17
:10129000002CEED1194F7F44AE3F19E0E80715D07E
:1012A00007EB04100DF1180A90E80E008AE80E0012
:1012B000C068F04201D1981908903246012306A96E
:1012C00003A800F03BFB03AB83E807006D10641C30
:1012D000002DE3D14FF0010332466946B8F1000F0B
:1012E00003A802D000F015FB01E000F027FBC9E9DC
:1012F0000001C9F808200AB0BDE8F087ACE8040096
:10130000007B00F08000704710B500F037F8BDE8B2
:10131000104000F02EB87546FFF7D2FEAE4605002D
:101320006946534620F00700854618B020B5FFF700
:1013300025F8BDE820404FF000064FF000074FF0C1
:1013400000084FF0000B21F00701AC46ACE8C009E3
:10135000ACE8C009ACE8C009ACE8C0098D467047EC
:1013600010B50446AFF300802046BDE81040FEF7FC
:1013700091BF002801D000F029B8704710B50128AE
:1013800005D0002103A000F028F8012010BD09A11C
:10139000F8E7000053494752544D454D3A204F75E8
:1013A00074206F662068656170206D656D6F72795D
:1013B000000000003A2048656170206D656D6F7215
:1013C0007920636F7272757074656400014918202A
:1013D000ABBEFEE726000200704770B505460C461E
:1013E0000A2000E06D1C00F011F835B128780028C3
:1013F000F8D102E0641C00F009F814B1207800284C
:10140000F8D1BDE870400A20AFF3008008B5694606
:101410008DF800000320ABBE08BD5FEA400C08BF9A
:1014200091F0000F4FEA8C234FEAC12243EA515159
:101430004FEA1C5018BF00F5F0404FEA300018BFCB
:1014400041F000415FEA6C5C00F02980BCF1FF3F95
:1014500008BF40F080407047130C06BF12044FF0E5
:10146000100C4FF0000C130E04BF12020CF1080C0C
:10147000130F04BF12010CF1040C930F04BF920070
:101480000CF1020CD30F04BF52000CF1010C1146F9
:101490004FF00002A0F11F00A0EB0C00704711F00C
:1014A000004F08BF704731F000413FF4D5AF0B0C3F
:1014B00006BF09044FF0100C4FF0000C0B0E04BFD8
:1014C00009020CF1080C0B0F04BF09010CF1040C0C
:1014D0008B0F04BF89000CF1020CCB0F04BF490035
:1014E0000CF1010CCCF12003A0EB0C0022FA03F369
:1014F00002FA0CF241EA030100F10100704720F00A
:101500007F4C80EA030023F07F47ACEB070303F531
:101510007C5300F0004003F1FF032DE980494FEABE
:10152000154B09B44FEA144325EA0B4E24EA03484D
:101530000FF2042606EB132749083E785FEA3202D1
:1015400003FB0667C7F5000707FB06F64FEA5437AB
:101550004FEAD64606F1020607FB066CCCF1005CAA
:101560004FEA1C472CEA074C07FB06F40CFB06F578
:1015700004EB15464FEA961634BF00204FF00040AA
:101580004FEAD13706FB07FC4FEA1C4C0CFB0BF76C
:10159000D21B03FB0CF761EB07010CFB0EF7B0EB62
:1015A000074072EB17420CFB08F734BFA2EB07426F
:1015B000B2EB074261EB17414FEA0C444FEA910747
:1015C00006FB07FC4FEA1C4C0CFB0BF7B0EBC740CB
:1015D00072EB573203FB0CF734BFA2EBC742B2EBFE
:1015E000C74261EB57310CFB0EF7B0EBC70072EB53
:1015F00057720CFB08F734BFA2EBC702B2EBC7026D
:1016000061EB5771039F4FEA816141EA921104EB4C
:10161000CC044FEAD1374FEA826206FB07FC42EA6C
:1016200090124FEA80604FEA1C4C0CFB0BF7D21B68
:1016300003FB0CF761EB07010CFB0EF7B0EB074067
:1016400072EB17420CFB08F734BFA2EB0742B2EB78
:10165000074261EB17414FEA8C554FEA910704EBC3
:101660009C2406FB07FC4FEA1C4C0CFB0BF7B0EB71
:10167000C74072EB573203FB0CF734BFA2EBC742F3
:10168000B2EBC74261EB57310CFB0EF7B0EBC70072
:1016900072EB57720CFB08F734BFA2EBC702B2EB38
:1016A000C70261EB577115EB4C254FEA816141EAA6
:1016B00092114FEA82624FEAD13742EA901206FB5A
:1016C00007FC44F100044FEA80604FEA1C4C0CFB1D
:1016D0000BF7D21B03FB0CF761EB07010CFB0EF7BA
:1016E000B0EB074072EB17420CFB08F734BFA2EBDC
:1016F0000742B2EB074261EB174115EB1C154FEAAD
:10170000813141EA92414FEA823242EA90424FEA05
:1017100080304FEA0C7644F1000448EA03434EEA75
:101720000B484FF0000EB2EB080C71EB030724BF1F
:10173000624639464EEB0E0E4FF0000B0018524138
:1017400049414BEB0B0BB2EB080C71EB03077BF140
:10175000000B24BF624639464EEB0E0E4FF0000BD5
:101760000018524149414BEB0B0BB2EB080C71EBEB
:1017700003077BF1000B24BF624639464EEB0E0E89
:1017800051EA020718BF46F0010616EB0E7655F136
:10179000000254F1000103D5BDE88901BDE80088CD
:1017A000BDE88901BDE80048B619524141EB01018D
:1017B000A3F10103704780807F7E7D7C7B7A7978FE
:1017C000777676757473727171706F6E6E6D6C6C06
:1017D0006B6A6A69686867666665646463636261A8
:1017E0006160605F5F5E5E5D5D5C5C5B5B5A5A5929
:1017F0005958585757565655555554545353525295
:101800005251515050504F4F4F4E4E4D4D4D4C4CEC
:101810004C4B4B4B4A4A4A49494948484847474735
:101820004746464645454544444444434343434272
:10183000424242414141002B9C4630D477002BD09C
:101840001CB54FEA370703B44FF010004FF01001FA
:10185000BAF1000F06D0BCF1000FDCBF40F0080069
:1018600040F008014FF000000FBCBDE810400BF144
:10187000010BBBF1010F08BF5FEA170722BF12F18E
:10188000010211F101014FF0004143F1000300F0AA
:10189000004043EA00007047F9D35708D0E746EA12
:1018A000064613F1400F4FEA16461FDD13F1200FD5
:1018B000DFBF16430A46002120335B42BED0C3F18E
:1018C000200746EA064602FA07F74FEA164646EAB6
:1018D0000706C3F1200722FA03F201FA07F721FAFB
:1018E00003F14FF0000342EA0702A7E746EA0206C7
:1018F00046EA06464FEA164646EA0106BCBF46EAF5
:101900000646360C4FF000034FF000024FF0000186
:1019100094E72DE9804C9A46934670B491E83800DC
:1019200007C831EA400C48BF34EA430C03D5FFF73F
:10193000E6FDFFF780FFF0BCBDE8008C2DE9804C90
:101940009A46934670B491E8380007C810F0804F6B
:1019500008BF13F0804F03D100F005F8FFF76BFFCD
:10196000F0BCBDE8008C20F07F4780EA030023F044
:101970007F4C07EB0C03A3F57C5300F00040A3F170
:10198000FE0392F0000F00F0B38095F0000F00F01E
:1019900077802DE901494FEA11404FEA144621EAC8
:1019A000004800FB06FC24EA064708FB06F607FB96
:1019B00008F800FB07F718EB06484CEB164C4FEA0B
:1019C000124B18EB07484FEA15464CEB174022EA3A
:1019D0000B4E0BFB06FC25EA06470EFB06F607FB43
:1019E0000EFE0BFB07F71EEB064E4CEB164C4FF0B2
:1019F00000061EEB074E4CEB174B18EB0B0840F1A3
:101A0000000018EB0E0B58EB000840F100008F1A95
:101A10004FF000013CBFC943661B14BFB5EB040C7B
:101A200000213CBFC943F61B4FEA17444EEA8E0E15
:101A300027EA04454FEA1C4704FB07622CEA074CDF
:101A400005FB07F70CFB05F604FB0CFC16EB074641
:101A500042EB174216EB0C4642EB1C421BEB060610
:101A600058EB0202414146EA9E0601D5BDE80189D4
:101A7000B619524141EB0101A3F10103BDE801890F
:101A80004FEA14454FEA114724EA054621EA074C7C
:101A900005FB07F406FB07F70CFB06F105FB0CFC46
:101AA00011EB074144EB17444FEA124711EB0C418D
:101AB00044EB1C4422EA074C05FB07F206FB07F740
:101AC0000CFB06F605FB0CFC16EB074642EB174237
:101AD00016EB0C4642EB1C456A1854F1000148BF56
:101AE0007047B619524141EB0101A3F10103704760
:101AF00095F0000F37D04FEA11424FEA144721EA20
:101B0000024624EA074C02FB07F106FB07F70CFB31
:101B100006F402FB0CFC14EB074441EB17414FEABF
:101B2000154714EB0C4441EB1C4125EA074C02FB22
:101B300007F506FB07F70CFB06F602FB0CFC16EBA1
:101B4000074645EB174516EB0C4645EB1C421219B0
:101B500051F1000148BF7047B619524141EB0101F4
:101B6000A3F1010370474FEA14454FEA114724EAF5
:101B7000054621EA074C05FB07F106FB07F70CFBBE
:101B800006F24FF0000605FB0CFC12EB074241EB9E
:101B9000174112EB0C4251EB1C4148BF70479218A1
:101BA00041EB0101A3F10103704710B5142001F0CE
:101BB00011FC800705D10321BDE81040142001F07D
:101BC00083BC10BD010906D000F00F01000900EB35
:101BD000800001EB40007047FEE72DE9F0410E4622
:101BE000074615460421052000F02FF880210A2021
:101BF00001F06AFC0021012002F060F9002405E0F8
:101C0000395D092002F05AF9641CA4B2B442F7D33A
:101C10000321012002F052F94FF47A74052001F0FB
:101C2000D9FB641E2404240C01D04007F6D52220E1
:101C300001F0D0FB2870212001F0CCFB6870BDE8DA
:101C4000F0410021012002F039B970B50C4605467B
:101C500001F0C0FB20EA04012846BDE8704002F014
:101C60002DB930B58BB00546002428216846FEF713
:101C700047FE00206A460A2108E0B5FBF1F301FBAC
:101C80001353B5FBF1F542F82430641C002DF4D158
:101C9000641E05D452F82410A30099400843F7E7C6
:101CA0000BB030BD7047000010B55020EFF3118429
:101CB00080F31188BFF34F8FBFF36F8F012000F0C7
:101CC00071F8012808D1064800220121006826F099
:101CD000ADFD012000F060F884F3118810BD000014
:101CE0009802002010B55020EFF3118480F3118882
:101CF000BFF34F8FBFF36F8F042000F053F801281C
:101D000008D1064800220221006826F08FFD042039
:101D100000F042F884F3118810BD00009802002002
:101D200010B55020EFF3118480F31188BFF34F8F6B
:101D3000BFF36F8F082000F035F8012808D106485E
:101D400000220421006826F071FD082000F024F82C
:101D500084F3118810BD00009802002010B55020B7
:101D6000EFF3118480F31188BFF34F8FBFF36F8FB0
:101D7000102000F017F8012808D106480022082199
:101D8000006826F053FD102000F006F884F3118857
:101D900010BD000098020020014908607047000053
:101DA000143C0140034A0146002012680A4200D058
:101DB00001207047143C014030B51A4A837901680C
:101DC00053B313688B431360111D0B680468A3435E
:101DD0000B60017911440B68046823430B60114BBD
:101DE000083319680468A14319601C1D216805683F
:101DF000A94321604179102905D011440A6800687F
:101E000002430A6030BD19680268114319602168F5
:101E100000680143216030BD0079104402688A43A4
:101E2000026030BD003C01408000A0F1C0400029AC
:101E3000016802D041F0010101E0024A1140016055
:101E400070470000FEFF0F0070B501688900A1F126
:101E5000C0410B68334A1340D0E901242243D0E942
:101E600003452C4322434469224384692243C469C5
:101E70002243046A2243446A2243846A2243C46A96
:101E80002243046B22431A430A608168082907D160
:101E900001688900A1F1C0410A6842F040020A606D
:101EA00001688A00A2F1C042516801F04043416BD1
:101EB000D1E9004544EA05148D688E892D0245EA72
:101EC00006452C430D8A44EA05540D7D896944EA90
:101ED00005640C431C435460C16AB1F5804F08D0BF
:101EE00000686FF070418000A0F1C040C0F804119C
:101EF00070BD01688900A1F1C041D1F80421806B57
:101F0000094B1A40D0E9003443EA041384688589F8
:101F1000240244EA05448069234303431343C1F880
:101F2000043170BD8000F7FF0000F0CFF0B5002253
:101F300001274FF0030C0B6807FA02F52B40AB4268
:101F40002CD1066853000CFA03F4A64306600E7900
:101F5000D0F800E09E4046EA0E0606600E79012E9B
:101F600001D0022E12D18668A64386604E79D0F841
:101F700008E09E4046EA0E0686604668AE4346602C
:101F800045688E799640B6B235434560C568A5432D
:101F9000C560CC799C40C3681C43C460521C102AA5
:101FA000C9D3F0BD4B07DB0E9A40C90810B500EB52
:101FB0008100016A0F249C40A1430162016A114320
:101FC000016210BD41837047018370472DE9F05FC6
:101FD000DFF8ACA083460024DAF8001021F4406159
:101FE000CAF80010DAF80010CAF80010254EDFF821
:101FF0009890254627464FF00108C6F898720420AD
:1020000008F0F2F8C6F898826006040ED9F81402B7
:1020100008B1641CE4B2042008F0E6F86D1CEDB2CF
:10202000082DEAD3BBF1000FC6F89872DAF8001059
:10203000504621F44061CAF80010DAF8001041F46B
:102040008061CAF800100FD0C9F89472032006F519
:10205000267608F0C9F8C6F80080032008F0C4F816
:1020600037602046BDE8F09F4546C9F894820220BB
:1020700006F5267608F0B8F835600220EEE7000095
:102080000010024000004042000042422DE9F047AB
:1020900005461748016821F440610160016841F478
:1020A00080610160134F0026C7F89862DFF848800E
:1020B00034464FF00109280602D5C8F8949201E091
:1020C000C8F894626806050E052008F08DF8C7F878
:1020D0009892052008F088F8C7F89862052008F063
:1020E00083F8641CE4B2082CE5D3BDE8F087000057
:1020F00000100240000040420000424270B50F480C
:10210000016821F440610160016841F4806101606F
:102110000B4E0120C6F894020A4DC5F8980204201F
:1021200005F5267506F5257608F05EF8002434607E
:10213000042008F059F82C6070BD00000010024027
:10214000000042420000404270B50F48016821F48F
:1021500040610160016841F4806101600B4D002025
:10216000C5F898020A4CC4F89402042004F52574BA
:1021700005F5267508F038F8012028602060BDE8D4
:102180007040042008F030B80010024000004042C7
:10219000000042422DE9F04112480024016821F478
:1021A00040610160016801600F4D0127C5F894721C
:1021B000032008F019F80D4EC6F89872032008F0B5
:1021C00013F808E0641CE4B2FA2C04D9FFF7BCFF52
:1021D0000120BDE8F081D5F814020028F2D1C6F83C
:1021E0009802F6E700100240000042420000404220
:1021F00010B50446FFF782FFE620FFF747FFFFF721
:10220000C9FF18B1FFF7A0FF002010BD2046FFF75F
:102210003DFFFFF7BFFFFFF771FFE720FFF736FF36
:10222000FFF7B8FF0020FFF7D1FE0446FFF78CFF51
:10223000204610BD70B515460C460646FFF75EFFFA
:10224000E620FFF723FFFFF7A5FF18B1FFF77CFF9C
:10225000012070BD3046FFF719FFFFF79BFFFFF726
:102260004DFFE720FFF712FFFFF794FF08E0012C76
:102270000CD00120FFF7AAFE641E05F8010BA4B2E2
:10228000002CF4D1FFF760FF002070BD0020F1E7C3
:1022900010B5FFF733FFE620FFF7F8FEBDE810406A
:1022A000FFF752BF70B50C460546FFF727FFE62043
:1022B000FFF7ECFEFFF76EFF18B1FFF745FF0120B7
:1022C00070BD2846FFF7E2FEFFF764FF2046FFF7E8
:1022D000DDFEFFF75FFFFFF737FF002070BD000056
:1022E0001CB50121022000F05BFD202000900120A0
:1022F0008DF804008DF8060003208DF805000020FD
:102300008DF8070069460748FFF710FE402000904F
:1023100069460548FFF70AFE4FF440710348FFF78E
:1023200053FE1CBD001002400000024000040240A9
:1023300070B5002021F0E4FC084D002405EB4400BA
:10234000417815F81400FFF7ADFF641C1E2CF5D37F
:10235000BDE87040002021F0D3BC000026AB02088D
:10236000FEE7000030B50D4D044600216B882A8839
:10237000084600F02BF8288800224FF0D8436D88DB
:1023800009E0002103E0A3F88040491C89B28D4296
:10239000F9D8521C92B29042F3D830BDD807002031
:1023A00009482A2141812B2181812C210181002191
:1023B00081714FF4A07101804FF4F0714180C82108
:1023C000362000F02AB80000D807002070B502447B
:1023D00094B2CA180D4D93B24FF0D8426E8922F8CC
:1023E0007E6F060A5680C0B25080200A5080E0B24C
:1023F0005080A8891080080A5080C8B25080180AFE
:102400005080D8B250802889108070BDD807002035
:102410004FF0D841A1F8800070474FF0D84222F821
:102420007E0F518070477CB5054608210024084680
:10243000FFF70BFC80210E20FFF707FC00210D2089
:1024400001F03CFD932028702020687001A82B46E5
:102450000090022219460C2000F0DFF806000AD195
:102460000022A85C521C4440D2B2042AF9D3A85CD2
:10247000A04200D0022680210E2001F025F830462F
:102480007CBD30B585B08DF804008DF805100020B6
:1024900001A9145C0D18401CC0B2AC700628F8D31A
:1024A00000200C181A5C401CC0B222720428F8D319
:1024B00004A800900B460C220E2000F0AEF8040099
:1024C00004D1082000F086FF000700D4022405B0E4
:1024D000204630BD1CB50121082000F061FC4020E1
:1024E000009001208DF8040002208DF805000020E6
:1024F0008DF806008DF8070069461248FFF716FDB3
:1025000000F03AF88D212A2001F0D8FC3E212B2042
:1025100001F0D4FC32212D2001F0D0FC00212C2030
:1025200001F0CCFC4021152001F0C8FC3D21112018
:1025300001F0C4FC0021012001F0C0FCFFF735FBD5
:102540001CBD0000000C02407CB50C46054607216E
:102550000D2001F0B3FC257001A823460090012254
:1025600019460C2000F059F818B9BDF804101029CC
:1025700000D002207CBD000070B50C4C0125C4F8D1
:102580009852284604F5267407F02EFE002020609D
:10259000012007F029FE2560012007F025FEBDE897
:1025A00070400F21012001F089BC000000804142F1
:1025B00010B586B093218DF8041070218DF80510A8
:1025C00000218DF80A1001AA5418435CA370445CE2
:1025D0009DF80A30491C6340C9B28DF80A300429BD
:1025E000F2D3072101A8D21DFFF7F7FA0821084608
:1025F000FFF72BFB04A801AB0090092219460C2021
:1026000000F00BF818B9BDF81000182802D000200F
:1026100006B010BD9DF80400FAE72DE9FF5F002524
:10262000DDF838B017468A4680464FF002092E463C
:102630000C2805D0B8F10E0F04D11225102601E0A8
:102640007725302645F08001022001F037FC8021FB
:102650000420FFF7FAFA80210A2000F035FF00215C
:10266000012001F02BFC002406E01AF804100920D8
:1026700001F024FC641CA4B2BC42F6D34146012004
:1026800001F01CFCB8F10C0F03D180210D2000F0EB
:102690001BFF42F21074042000F09CFE641E240410
:1026A0000746240C03D0F80701D13742F3D080212C
:1026B0000D20FFF7CAFA8CB3062000F08BFE10F055
:1026C0001B0F01D0022028E0B8F10C0F24D10A2002
:1026D00000F080FE05460C2000F07CFE10F00700A4
:1026E0004FEAC50104D008390844ABF8000001E006
:1026F000ABF8001025B1122D00D91225002409E0F5
:102700000125FBE7092000F065FE0146039801550D
:10271000641CA4B2AC42F5D30020814680210C2079
:1027200001F0CCFB0021012001F0C8FB04B04846B9
:10273000BDE8F09FFEE770471CB50FA00522D0E969
:102740000010CDE900106946302000F02DF9052277
:102750006946102000F082F8002069460A5CA52A2C
:1027600003D1401CC0B20528F8D3052801D00120B0
:102770001CBD00201CBD0000A5A5A5A5A50000004E
:102780007CB50121422000F00BFB4FF48040012575
:1027900000908DF8045002208DF8050000248DF87B
:1027A00006408DF8074069461248FFF7BFFB124804
:1027B000C0F8B852C02000908DF804508DF8064043
:1027C00003208DF805000D4E8DF807406946304610
:1027D000FFF7ACFB280200908DF804408DF80750FD
:1027E00069463046FFF7A2FB0548C0F89842C0F89A
:1027F0009C527CBD00040240008040420018024010
:102800000000434210B5134C0020C4F89802052282
:1028100011492A2004F5267400F0C6F80121212070
:1028200000F0E0F80121222000F0DCF8282125202A
:1028300000F0D8F82021312000F0D4F80F21262014
:1028400000F0D0F80F21202000F0CCF8012020600B
:1028500010BD00000000434267AB02082DE9F041C3
:102860000C4F0E4600211546C7F89C1200F0C8FD1B
:102870008046002405E0FF2000F0C2FD3055641CB6
:10288000E4B2AC42F7D30120C7F89C024046BDE851
:10289000F08100000000434210B5074C0021C4F84D
:1028A0009C1204F5277400F0ABFDFF2000F0A8FD9A
:1028B0000121216010BD00000000434270B50546B3
:1028C0000720FFF7E9FF04460146272000F08AF8B9
:1028D00060060AD5202229466120FFF7BFFFFF21AD
:1028E000E22000F07FF8002070BD012070BD0000E4
:1028F00010B5164C0020C4F8980205221449302067
:1029000004F5267400F050F811490522491D2A20CB
:1029100000F04AF80121212000F064F80121222072
:1029200000F060F81A21242000F05CF8282125200E
:1029300000F058F80F21262000F054F80E21202036
:1029400000F050F80120206010BD0000000043425C
:1029500062AB020810B5134C0022C4F8982201465D
:102960002022A02000F020F80120C4F89802D4F81A
:1029700020020028FBD10720FFF78EFF0446014606
:10298000272000F02FF8E00605D5FF21E12000F018
:1029900029F8102010BDA00601D5202010BDFF2071
:1029A00010BD0000000043422DE9F0410C4F0D46E0
:1029B00000211646C7F89C1200F022FD8046002434
:1029C00005E015F8010B00F01BFD641CE4B2B442F5
:1029D000F7D30120C7F89C024046BDE8F081000013
:1029E0000000434270B50D46084C01460020C4F873
:1029F0009C02084604F5277400F002FD06462846AE
:102A000000F0FEFC01202060304670BD0000434213
:102A100000F01F02012191404009800000F1E020F8
:102A2000C0F88011704700F01F0201219140400959
:102A3000800000F1E020C0F80011704730B50F238E
:102A4000C27801780125FAB1144A126801F1E02137
:102A500002F4E062C2F5E062C2F30722C2F10404AC
:102A6000D3404278A24084781C401443220181F86C
:102A70000024007800F01F018D404009800000F123
:102A8000E020C0F8005130BD01F01F00854048092A
:102A9000800000F1E020C0F8805130BD0CED00E076
:102AA0000249084302490860704700000000FA0527
:102AB0000CED00E070B5002505F1B000C0B20021BA
:102AC00000F063F90021084600F05FF900211020B2
:102AD00000F05BF900240121002000F056F9641C8D
:102AE000E4B2802CF7D36D1CEDB2082DE4D370BD99
:102AF00010B500218D2000F048F90021102000F0D1
:102B000044F90021BDE81040AE2000F03EB910B5F8
:102B100000218D2000F039F90021142000F035F952
:102B20000021BDE81040AF2000F02FB92DE9F0479B
:102B30001F4690460E4682460025DDF8209011E0A3
:102B40003146504600F086F8544607E019F8050073
:102B500001216D1C00F019F9641CE4B24445F5D361
:102B6000761CF6B2BE42EBD3BDE8F08710B50CF090
:102B700099FB142007F035FB0021AE2000F005F989
:102B80000021084600F001F90021102000F0FDF8B6
:102B90000021402000F0F9F80021B02000F0F5F805
:102BA0000021812000F0F1F80021FF2000F0EDF875
:102BB0000021A12000F0E9F80021A62000F0E5F8AE
:102BC0000021A82000F0E1F800213F2000F0DDF80E
:102BD0000021C82000F0D9F80021D32000F0D5F85A
:102BE0000021084600F0D1F80021D52000F0CDF8F2
:102BF0000021802000F0C9F80021D82000F0C5F89D
:102C00000021052000F0C1F80021D92000F0BDF816
:102C10000021F12000F0B9F80021DA2000F0B5F829
:102C20000021122000F0B1F80021DB2000F0ADF807
:102C30000021302000F0A9F800218D2000F0A5F837
:102C40000021142000F0A1F80021BDE81040AF20C1
:102C500000F09BB810B50446B031C8B2002100F0B6
:102C600094F8102040EA1410002100F08EF804F0CF
:102C70000F00BDE81040002100F087B82DE9F041B9
:102C800015460E460746FFF7E5FF0F48002400EB08
:102C900085150121285D00F078F8641CE4B2102C41
:102CA000F7D3761CF1B23846FFF7D4FF0024281979
:102CB000012190F8200000F068F8641CE4B2102CA8
:102CC000F5D3BDE8F0810000B8A202082DE9F0417B
:102CD000203A00240F468046D5B27F2803D9002031
:102CE0008F1C8046FFB2102B394610D0FFF7B2FF81
:102CF000164905EB450001EB40050121285D00F078
:102D000044F8641CE4B2062CF7D3BDE8F081FFF769
:102D1000A1FF0F4E04EB05100121305C00F035F8E7
:102D2000641CE4B2082CF5D37F1CF9B24046FFF7CF
:102D300091FF002404EB051030440121007A00F0DB
:102D400024F8641CE4B2082CF4D3DEE7A09A02084D
:102D5000C89C02082DE9F041984617460E460446E5
:102D600000250DE0434631462046FFF7AFFF08340B
:102D7000E4B2782C02D90024B61CF6B26D1CEDB278
:102D80007A5D002AEED1BDE8F08109B101F07EB88C
:102D900001F065B8014908627047000000000E426A
:102DA000044A0029116801D0014300E08143116009
:102DB0007047000030380240044A0029116801D0F1
:102DC000014300E081431160704700003838024041
:102DD000044A0029116801D0014300E081431160D9
:102DE0007047000040380240044A0029116801D0B1
:102DF000014300E081431160704700004438024005
:102E000070B5204B1968204C11F00C0104D06610ED
:102E1000042903D0082903D004601BE0066019E0F0
:102E2000184A121F1168C1F38055116801F03F0163
:102E300015B1B6FBF1F101E0B4FBF1F114681268D1
:102E4000C4F388146143C2F30142521C5200B1FB27
:102E5000F2F1016019680F2202EA11110B4A545C69
:102E60000168E14041601C68072505EA9424145D6F
:102E700021FA04F484601B6805EA5333D25CD14024
:102E8000C16070BD083802400024F400000000203A
:102E900002460020510901290BD002290CD0084913
:102EA000096802F01F02012393400B4200D0012069
:102EB000704703497439F3E70149091FF0E700003F
:102EC00074380240054900220A700A70012802D0B5
:102ED000042801D1052008707047000070380240B6
:102EE00001490860704700003C0E4742C0F30121D1
:102EF000032907D1074B1968074A21F4F81102404A
:102F00000A431A60034968310A68C0F30B000243A0
:102F10000A60704708380240FFFCFF0F10B54FF4FD
:102F20008054204600F080F8012809D10549086046
:102F3000204600F01FF86001BDE81040FEF72CBFEE
:102F400010BD000018000020010901EB810100F014
:102F50000F0000EB4100C0B27047002103E0491CA4
:102F60000A38C9B2C0B20A28F9D2090740EA11608A
:102F700070470000C0F30F1040F08000C1430348C9
:102F8000026802F080021143016070470C28004083
:102F900008B50D49002000900868400612D44FF093
:102FA000FF3008608B130868009A00F04000521C44
:102FB00000929A4201D00028F5D00868400601D45A
:102FC000002008BD012008BD0C280040024801680F
:102FD00021F08001016070470C280040020010B50C
:102FE0000F480C4601680F4801EA00014FEA114002
:102FF000E070C1F30423637001F03F03A370C1F3D9
:10300000423121700AD1FFF79FFFE0706078FFF72F
:103010009BFF6070A078FFF797FFA07010BD0000C5
:10302000042800403FFFFF000D4A10B51268002140
:103030000B4B02F00402383B1B6802EAD034034019
:10304000234302EA10421343064A126802EA1010B0
:1030500003D00004000C00D00121084610BD000080
:10306000402800400C280040020010B510480C46D3
:103070000168104801EA0001C1F305402070C1F366
:103080000623637001F07F03A3704FF0400303EA4F
:103090001141E1700AD1FFF757FF20706078FFF708
:1030A00053FF6070A078FFF74FFFA07010BD0000C5
:1030B000002800407F7F7F0030B50E4DCA222A6075
:1030C00053222A600B4C0B4B1C3C1C33002920F074
:1030D0000402216800F0040004D011432160196843
:1030E000014303E091432160196881431960FF2087
:1030F000286030BD2428004070B5124D04460026DB
:10310000CA20286053202860FFF742FFA8B10D486D
:103110001C38016821F040010160016822681143F8
:1031200001600848A168143801600168A28841EA7A
:1031300002410160FFF74AFF0126FF202860304668
:1031400070BD00002428004008B5034901EB800051
:103150000090006808BD00005028004070B50C4683
:103160000026010060780FD0FFF7EEFEA078FFF791
:10317000EBFEA078E17840EA014560782178000212
:1031800040EA4130054315E0C10603D520F01000A8
:103190000A306070E078FFF7E0FE05046078FFF722
:1031A000DCFE45EA0025A078FFF7D7FE054320782E
:1031B00045EA40350D4CCA20206053202060FFF7BF
:1031C000E7FE78B10A480540084820380560FFF757
:1031D000FDFE06481C380068800602D400F08AF81C
:1031E00000B10126FF202060304670BD2428004039
:1031F0003FFFFF002DE9F0410C460026234F010060
:103200002078396832464FEA416104D0002930DA2B
:10321000FFF79AFE2EE0002900DBE270FFF79DFE2B
:1032200005046078FFF799FE45EA0025A078FFF7CE
:1032300094FE0543E07845EA0045144CCA201C344E
:10324000206053202060FFF7A3FE68B110480540BE
:103250000E4808380560FFF7B9FE3868800602D4CA
:1032600000F048F800B10126FF2020603046BDE89C
:10327000F081E270A078217840EA01456078E17839
:10328000000240EA01400543D7E70000082800405B
:103290007F7F7F000549CA220A6053220A60034AE1
:1032A000103A1060FF20086070470000242800409A
:1032B00070B55020EFF3118480F31188BFF34F8F66
:1032C000BFF36F8F4FF480452846FFF7ADFE01280E
:1032D0000BD1074800221021006825F0A7FA2846E4
:1032E000FFF748FE2802FEF757FD84F3118870BDF2
:1032F0009802002018B50020104B0090CA201860DA
:10330000532018600D491839086820F0A0000860A3
:103310004FF400340868009A00F02000521C00921C
:10332000A24201D00028F5D00868800601D501200E
:1033300000E00020FF21196018BD00002428004093
:10334000084ACA2111605321116006491C390B68D3
:1033500023F007030B600B6803430B60FF20106032
:10336000704700002428004018B50021134B00913D
:10337000CA2119605321196010491C3900280868B6
:1033800003D040F48060086014E020F4806008609E
:103390000A4918398C130868009A00F00400521C7E
:1033A0000092A24201D00028F5D00868400701D45D
:1033B000002000E00120FF21196018BD24280040F2
:1033C00008B5034A02EB80000090016008BD0000D0
:1033D0005028004010B5094C0021C4F8AC127E21E1
:1033E00001EA400040F0800004F52B7400F004F97D
:1033F000FF2000F001F90121216010BD00004142D1
:1034000070B50B4C05460221204600F01DF800283F
:10341000F9D02946204600F020F80121204600F08E
:1034200013F80028F9D0204600F015F8C0B270BD9E
:10343000003001400029018802D041F0400101E044
:1034400021F04001018070470246002012890A42A3
:1034500000D001207047808970478181704730B566
:1034600002884C8802F441530A88CD8822438C8814
:103470002C4322430C8922434C8922438C892243CA
:10348000CC8922431A430280828B22F40062828319
:10349000098A018230BD000010B58A0721F00304BB
:1034A0000849120F21440F23D1F8084893409C4348
:1034B000C1F80848D1F8083890400343C1F80838EB
:1034C00010BD00000030014070B50C460546FFF706
:1034D00081FF40EA04012846BDE8704000F0EEBCE0
:1034E0000CB50022274900920192086840F4803010
:1034F00008604FF4A043086800F400300190009881
:10350000401C0090019810B900989842F3D10868C7
:10351000800334D5012001901A484030026842F0FF
:10352000805202601848026842F440420260154826
:10353000083002680260026842F4004202600268D9
:1035400042F4A0520260031F104A1A600A6842F057
:1035500080720A600A689201FCD50D4940F205723A
:103560000A60016821F003010160016841F0020175
:1035700001600168C1F381010229FAD10CBD0192F9
:103580000CBD0000003802400070004008544007A5
:10359000003C02407CB501210C20FFF701FC012515
:1035A0008DF8045002264FF414608DF80560002455
:1035B00000908DF806408DF8074069460B48FEF7ED
:1035C000B5FC8DF8044080208DF8056000908DF8E2
:1035D00006408DF8074069460548FEF7A7FC0548F8
:1035E000C0F8A042C0F8AC527CBD00000008024008
:1035F000000C0240000041422DE9F05F0026DFF898
:103600004CB0134F814607244FF0010AB0460AFA26
:1036100004F5504615EA090F02D0C7F8980201E0F8
:10362000C7F89882C7F8A002022006F0DDFDDBF89B
:103630001C0208B13543EEB2C7F8A082022006F0A2
:10364000D3FD641EE3D53046BDE8F09F00804142C3
:103650000000414210B5502080F31188BFF34F8F16
:10366000BFF36F8F25F07AFC18B104494FF08050FA
:103670000860002080F3118810BD000004ED00E018
:10368000124810B5016841F47001016010480168EA
:1036900041F0010101600E4A002108321160026808
:1036A0000C4B1A400260031D0B4A1A60026822F498
:1036B0008022026006480C300160FFF711FF0349C9
:1036C0004FF000608039086010BD000088ED00E018
:1036D00000380240FFFFF6FE1030002400B5012143
:1036E0009DB00846FFF768FB002001210F22CDE9BD
:1036F0001610CDE918200F911A90022110911B90FD
:103700001C900421CDE91110149006211590CDE9EB
:1037100000101021CDE90201139004900902CDE9B7
:1037200008010690059007908900CDE90A010C90E8
:1037300016A80D900FA80E906846FEF785FB012194
:103740000620FEF771FB1DB000BD00002DE9FC5FF7
:1037500001217A20FFF724FBDFF874810C220E216F
:103760004046FEF71FFC0C220F214046FEF71AFCD4
:103770000C2200214046FEF715FC0C220121404698
:10378000FEF710FCDFF84C910C2207214846FEF7AB
:1037900009FC0C2208214846FEF704FC0C220921F2
:1037A0004846FEF7FFFB0C220A214846FEF7FAFBCB
:1037B0000C220B214846FEF7F5FB0C221146484629
:1037C000FEF7F0FB0C220D214846FEF7EBFB0C2226
:1037D0000E214846FEF7E6FB0C220F214846FEF775
:1037E000E1FB0C2208214046FEF7DCFB0C220921FC
:1037F0004046FEF7D7FB0C220A214046FEF7D2FBDB
:103800000C2204214046FEF7CDFB0C220521404648
:10381000FEF7C8FBDFF8C0A00C2211465046FEF7A9
:10382000C1FBDFF8B8B00C2211465846FEF7BAFBD0
:1038300002278DF8047000254CF233708DF8065085
:10384000032600908DF8056001248DF80740694635
:103850004046FEF76BFB8DF804704FF680708DF8D4
:10386000065000908DF805608DF80740694648467F
:10387000FEF75CFB8DF804708DF806504FF480580D
:103880008DF80560CDF800808DF8074069465046F8
:10389000FEF74CFB8DF804708DF806508DF805602E
:1038A000CDF800808DF8074069465846FEF73EFB8C
:1038B0008DF80440E0038DF8065000908DF8056007
:1038C0008DF8074069460648FEF730FBBDE8FC9FCF
:1038D000000C024000100240001402400018024098
:1038E0000004024010B5FFF731FFFFF7F7FE32206A
:1038F00006F077FC4FF0D844F12024F87E0F3620F4
:10390000608004206080002060803C2060800F2068
:1039100060808F206080F220208018206080A320AB
:1039200060801220608002206080B22060801220BF
:103930006080FF2060801020608000206080F82080
:1039400020802120608004206080F92020800020D9
:103950006080082060803620208008206080B420AD
:10396000208000206080B6202080022060802220FD
:103970006080C120208041206080C5202080002000
:10398000608018206080E02020800F2060801F2051
:1039900060801C2060800C2060800F2060800820E8
:1039A00060804820608098206080372060800A20F6
:1039B00060801320608004206080112060800D20D2
:1039C000608000206080E12020800F206080322015
:1039D00060802E2060800B2060800D20608005209C
:1039E00060804720608075206080372060800620DE
:1039F0006080102060800320608024206080202070
:103A00006080002060803A20208055206080112056
:103A1000208036202080C8206080782006F0E1FBDE
:103A200029202080FEF7BCFC012020F0B3F8BDE87F
:103A300010400020FEF796BC10B50F4C0121204627
:103A400000F02DF8012816D10C48D0F8080230B942
:103A50000B4AD2F8A80260B10021C2F8A8120021D6
:103A6000204600F012F82046BDE81040012100F089
:103A700009B80121F1E710BD0004004000004242F6
:103A800000804242C943018270470029018802D068
:103A900041F0010101E021F001010180704702467F
:103AA0000020138A92890B4202EA010202D0002A06
:103AB00000D00120704700002DE9F04700251E4F7F
:103AC0002C462E46C7F880521C49C1F8AC52DFF88C
:103AD00070A0CAF8B45207F5207700F033F806203A
:103AE00006F082FB3E60012006F07EFB4FF00108ED
:103AF000C7F80080404606F077FB3E60B146464678
:103B00004FF6FF78A7F5207708EA4404C7F88092BB
:103B1000012006F069FBC7F88062D7F8080208B1F7
:103B2000641CA4B26D1CEDB2102DEDD32009CAF8AF
:103B3000B462BDE8F087000000804042008042424D
:103B4000000041422DE9F04700240E4E0E4F05467D
:103B5000A0464FF00109280601D5484600E040463E
:103B6000C6F8AC026806050EC7F88082012006F090
:103B70003BFBC7F88092641CE4B2082CEBD3BDE891
:103B8000F0870000008042420080404270B51C4C2B
:103B900040F225552946204600F0CBF801282DD1CA
:103BA000204600F053F9C2B2002116480A2A1ED05E
:103BB000232A1CD0D0F804321BB1C0F80412C0F87C
:103BC0000012D0F80032C1185B1CC0F800320A7035
:103BD000D0F80012A1F58073FF3B02D1D0F800129B
:103BE000425429462046BDE8704000F08BB8D0F81A
:103BF000002281540121C0F80412F2E770BD0000D8
:103C000000100140E80700202DE9F0415020EFF3BB
:103C1000118480F31188BFF34F8FBFF36F8F1B4E5A
:103C200040F225584146304600F083F801281AD169
:103C3000304600F00BF9C1B2154D232917D0D5F845
:103C400000022A18401CC5F800021170D5F80002C5
:103C5000A0F58072FF3A02D1D5F8000229544146FE
:103C6000304600F04FF884F31188BDE8F081094830
:103C70000027D0F800022F5407483B463A46044933
:103C8000006824F0F5FFC5F80072E8E70044004042
:103C9000F0090020E8070020A402002070B55020A1
:103CA000EFF3118480F31188BFF34F8FBFF36F8F51
:103CB000124D40F225563146284600F03AF80128C8
:103CC00018D1284600F0C2F80D49C0B2D1F8002240
:103CD0008B18521CC1F800221870D1F80022A2F5EE
:103CE0008073FF3B02D1D1F8002288543146284628
:103CF00000F008F884F3118870BD0000004800400F
:103D0000F80B00200A0A01219140C9430180704745
:103D10000029818902D041F4005101E021F40051D1
:103D2000818170470246002012880A4200D001209B
:103D3000704770B501F01F0501260024C1F342133E
:103D400006FA05F2012B0FD0022B0FD0838A4FEA1F
:103D500011210088134206FA01F600EA060001D09C
:103D600000B10124204670BD8389F0E7038AEEE7A5
:103D700010B5C1F3421301F01F040121A140012B32
:103D800007D0022B07D01430002A026805D00A435E
:103D900004E00C30F8E71030F6E78A43026010BD0B
:103DA0007FB50446008A0D46C98820F4405001437F
:103DB0002182A08941F20C618843A9882A89114394
:103DC0006A8902431143A181A08A20F44071A88925
:103DD0000843A0826846FFF713F81A48844202D0CD
:103DE0001948844201D1039800E00298A18909048E
:103DF00000EBC00101EB0010296801D5490000E08B
:103E00008900B0FBF1F06422B0FBF2F109010B096B
:103E10006FF018056B4300EB8300A3891D044FF07E
:103E2000320306D503EBC000B0FBF2F000F0070050
:103E300005E003EB0010B0FBF2F000F00F000843C8
:103E400020817FBD00100140001401408088C0F334
:103E500008007047C1F3080181807047FEE710B584
:103E600004460BF09DFA78200BF068FA0BF0D4FAB8
:103E700000200BF063FA0BF0CFFA20460BF05EFA4D
:103E80000BF0CAFABDE810400BF0AABA10B5044610
:103E90000BF086FA78200BF051FA0BF0BDFA4020B7
:103EA0000BF04CFA0BF0B8FA20460BF047FA0BF087
:103EB000B3FABDE810400BF093BA000070B5094C9E
:103EC0000D460021C4F8AC127E2101EA400004F541
:103ED0002B74FFF791FB2846FFF78EFB0120206033
:103EE00070BD00000000414203B4019841000098F9
:103EF00050EAC12018BF04204A0D18BF40F001004D
:103F000040F2FF72B2EB515F08BF40F0020001289F
:103F100008BF052002B0704730380A2801D20120BE
:103F2000704700207047000010B54021074801F09D
:103F3000AAF9002304221E2105481CF0BFFF054CEE
:103F4000A06002F08BFD0020207010BDB024012085
:103F5000116B0008200500202DE9F04100251C46CA
:103F600088460646152A3BD2DFE802F00B1B1D2EC1
:103F70003744545D5F686B7B898B9BA8ADB2B7BC3F
:103F8000D00030460DF030FF054640460DF02CFFC6
:103F9000014605EBD570401001EBD171A0EB61003B
:103FA000A3E025800EE030460DF01EFF0746404698
:103FB0000DF01AFF07EBD771491000EBD070A1EBA1
:103FC00060008DE065800BE030460DF00DFF074688
:103FD00040460DF009FF381A82E025809AE06080A3
:103FE0002088318808442080608871880844608077
:103FF000BDE8F08130460DF0F7FE054640460DF075
:10400000F3FE014605EBD570401001EBD171A0EB3A
:1040100061007EE030460DF0E7FE054640460DF0BB
:10402000E3FE281A75E0258060E030460DF0DCFEE6
:10403000054640460DF0D8FE281A56E02580084671
:1040400019E030460DF0D0FE054640460DF0CCFE9E
:10405000014605EBD570401001EBD171A0EB61007A
:1040600007E030460DF0C0FE054640460DF0BCFEB0
:10407000281A208040460DF06DFE4042AFE72580B3
:1040800018E030460DF0B0FE054640460DF0ACFE9F
:10409000014605EBD570401001EBD171A0EB61003A
:1040A00007E030460DF0A0FE054640460DF09CFEB0
:1040B000281A208030460DF04DFE90E708460DF09E
:1040C00093FE40420CE008460DF08EFE40420CE0AC
:1040D00008460DF089FE40421BE030460DF084FE9C
:1040E00020806FE730460DF07FFE208030460DF0D7
:1040F00031FE054640460DF02DFE014605EBD5701C
:10410000401001EBD171A0EB610068E730460DF083
:104110006BFE208030460DF01DFE054640460DF03A
:1041200019FE281A5BE770B5B1F90040B2F900300A
:104130009C4200DD23460380B1F90240B2F90250EF
:10414000AC4200DC2C464480B1F90450B2F9046062
:10415000B54200DB35468580B1F90610B2F906207C
:10416000914200DB1146C1800120AB4201DC8C4250
:1041700000DD002070BDF8B50D460446B0F9000022
:10418000B1F900101646884247DBB4F90210B5F9C0
:104190000220914241DBB4F90410B5F904209142A8
:1041A0003BDCB4F90610B5F90620914235DC96B334
:1041B000ADF800006088ADF8020032466946284636
:1041C00000F049F8002827D0A088ADF800006088EA
:1041D000ADF8020032466946284600F03CF8002857
:1041E0001AD02088ADF80000E088ADF80200324611
:1041F0006946284600F02FF800280DD0A088ADF8B9
:104200000000E088ADF8020032466946284600F01A
:1042100022F8002800D00120F8BD0020F8BDB0F938
:104220000020B1F904309A4213DCB0F90420B1F94E
:1042300000309A420DDBB0F90220B1F906309A4203
:1042400007DCB0F90600B1F90210884201DB012059
:104250007047002070472DE9FC4105460F46B1F933
:104260000000B5F90010144688423BDBB5F9041094
:10427000884237DCB7F90200B5F90210884231DB19
:10428000B5F9061088422DDC002C76DD28460DF0AD
:10429000ABFD00EBD070461028460DF05BFD00EB47
:1042A000D0704010864200DA3046844200DD044679
:1042B0002888ADF80000288800222044ADF80400CA
:1042C0006888ADF80200688839462044ADF80600D9
:1042D0006846FFF7C0FF40B1BDF804002044ADF8C8
:1042E00004003FE00020BDE8FC81E8880022001BBC
:1042F000ADF80200E888ADF8060039466846FFF7D9
:10430000AAFF28B1BDF804002044ADF8040011E074
:10431000A8880022001BADF80000A888ADF80400B2
:1043200039466846FFF797FF50B1BDF80000001B03
:10433000ADF80000BDF80200001BADF8020016E069
:104340006888ADF80200688800222044ADF80600B5
:1043500039466846FFF77FFF70B1BDF80000001BCB
:10436000ADF80000BDF806002044ADF8060039465F
:1043700068461AF0E7FCB6E7FFE70120B3E710B59F
:10438000B1F90030B2F90040A34200DB23460380BC
:10439000B1F90230B2F90240A34200DB2346438068
:1043A000B1F90430B2F90440A34200DC2346838013
:1043B000B1F90610B2F90620914200DC1146C18025
:1043C00010BD2DE9F04116460F4604460DF00CFDD8
:1043D000054620460DF0BEFC034627806680294630
:1043E00020460DF031FD2046BDE8F04119460DF0A4
:1043F00026BD2DE9FF4F87B01C46DDE91476DDF8B8
:1044000058908B46022E4FD3002F4DD001F092FCD6
:10441000804610F08BFE00F11005D0F808A0D8F807
:104420002410404601B188475A4604A80799FFF76F
:104430007AFE002838D0BDF810002988401AADF85F
:104440001000BDF812006988401AADF81200BDF8DE
:1044500014002988401AADF81400BDF816006988C8
:10446000401AADF816009CB198F80800C0070FD1AB
:1044700004A80DF0A1FC0246002007E0215C802981
:1044800001D9FF2100E000212154401C9042F5DBBE
:10449000D8F8140058B1CDE90064029704AA514637
:1044A0002846099B09F0C8FF0BB0BDE8F08FB9F1B1
:1044B000000F0AD001A8009680E8900204AA514695
:1044C0002846099B09F076FDEEE7CDE900640297E6
:1044D00004AA51462846099B09F004FEE4E72DE9A9
:1044E000FF4F87B01C46DDE91476DDF858A09146F1
:1044F000022E51D3002F4FD0014605A8089AFFF78E
:1045000012FE002848D001F015FC804610F00EFE87
:1045100000F11005D0F808B0D8F82410404601B1D9
:104520008847BDF814002988401AADF81400BDF87A
:1045300016006988401AADF81600BDF818002988E1
:10454000401AADF81800BDF81A006988401AADF895
:104550001A009CB198F80800C0070FD105A80DF00B
:104560002BFC0246002007E0215C802901D9FF21B5
:1045700000E000212154401C9042F5DBD8F81400E3
:1045800068B1CDF800900397CDE9016405AA5946BA
:104590002846089B1EF0FDFD0BB0BDE8F08FBAF178
:1045A000000F0BD002A805AA80E89004CDE9009680
:1045B00059462846089B1EF09FFBEDE7CDF800907A
:1045C0000397CDE9016405AA59462846089B1EF0C9
:1045D0003FFCE1E7D0F87821C2F309438B4202D2D5
:1045E00004490A4002E0591A61F31942C0F87821DF
:1045F00070470000FFFF00FC2DE9FC5F05461EF040
:1046000063F9564C0190E8686060002128461CF070
:104610008DFD6068C16BA9B11AF0A6FD1AF01AFDF4
:1046200060684F4AD0F8781111427DD0A24610F050
:104630001CFE00286BD0DAF80400554641690029B9
:1046400065D108E0464AD0F87811D2431140C0F84D
:104650007811BDE8FC9F10F069FD04461AF07EFE5B
:10466000A0690028FCD16868B0F90000400000F0A3
:1046700029FF8346A16820688946814200D160688D
:104680008046686810F066FD07460024AA4630E0C0
:10469000021992F85A2152BB00EBC4000E4630F9C1
:1046A0005A1F428817FB02114D000DF07FFB40009E
:1046B0000090706800EBC400B0F95C600FE008EB9C
:1046C00005015846009A00F0BFFF09EB0500594666
:1046D000009A00F0B9FF761C05EB470536B2DAF810
:1046E000040000EBC400B0F96000B042E7DA641CDB
:1046F000A4B2DAF804005146D0F87821C2F3094296
:10470000A242C5D8BBF1000001D000F05FFFDAF88B
:1047100004004FF4807154465A3001F0A6F86068E6
:10472000202100F5AD7000E012E001F09EF8606815
:104730000B4AD0F87811D2431140C0F87811019893
:104740001EF0BCF80146606883690BB12268984787
:1047500000F096FEBDE8FC5F00F004B8C404002041
:104760000000FF0310B5044C2068002803D016F0A9
:10477000D7FB0020206010BD44050020182101480F
:1047800000F081BDBC2401202DE9FE4F0446DDE987
:104790000C0513B9B0F5807F7ED0B5F900604FF0FD
:1047A000FF3C764246430CEB262636B22680B5F90E
:1047B00002707F4247430CEB27273FB26780B5F971
:1047C00000C0A1EB0C0141434FF0020C0CEB212186
:1047D00009B2A180B5F90280A2EB080242430CEBBA
:1047E000222000B2E080002B7ED04FF00A0A93FB1B
:1047F000FAF6704200EB800003EB400706F1010976
:1048000030B201F03FFE00900FFA89F001F03AFE5D
:1048100083465A3630B201F035FE804609F15A001F
:1048200000B201F02FFE0146009AC7F10A0000FB1A
:1048300002F300FB08F001FB07010BFB073393FBBE
:10484000FAF291FBFAF15011B4F900204FEA611B22
:10485000B4F902100BFB02F6B5F800C000FB1163BF
:104860000CEBA323E646B5F802C00FFA83FACDF8A5
:1048700000C0B4F9043000FB02F90BFB01920BFB02
:1048800003F800FB11850CEBA2220EEBA52512B25A
:104890002DB200FB03FC00E02EE0CDE901C80BFBCC
:1048A00001C1DDF800C0B4F906700CEBA1210BB218
:1048B00000FB17610EEBA1210EB2DDF808800BFBA7
:1048C000079100FB17800CEBA121DDF804C00EEB73
:1048D000A0200BFB07C7DDF800C009B20CEBA7272F
:1048E00000B23FB2D44600E00FE0564500DAB446CD
:1048F000A84217DA804616E000202080491E60801A
:10490000A180521EE280BDE8FE8F2A8832442280B8
:104910006A883A4462802A881144A18069880844E0
:10492000E080F0E7A846C44504DAD446564506DAE6
:10493000B44604E0A84201DA844600E0AC46A4F89C
:1049400000C0D446564500DDB446A84201DD80468D
:1049500000E0A846C44504DD5046564504DD304617
:1049600002E0A84200DC2846A080914201DA084615
:1049700000E010469F4201DA3D4600E01D46A84295
:1049800005DA914201DA084606E0104604E09F424B
:1049900001DA384600E018466080914201DD0846A1
:1049A00000E010469F4201DD3D4600E01D46A84262
:1049B00003DD914206DC114604E09F4201DD3946E9
:1049C00000E01946E1809EE72DE9FE4F0446D0F84D
:1049D00000B0B0F90800E589081AB4F90A10511AB4
:1049E000D4E90932B5F5807F3AD0A589002DA56BB1
:1049F00005FB00F005FB01F54FEA60104FEA651179
:104A00003CD0256BE66A05FB00F706FB11774643B1
:104A100005FB016003EBA72902EBA020B4F9041009
:104A20004FEA292706128046B94245DD002F43DBB5
:104A3000B4F90600B0423FDD002E3DDB94F83400AF
:104A400042073CD5820704F114001BD401FB067118
:104A500002224D0092460BEB050100F09EFE21E084
:104A6000256BE66A05FB00F706FB1177464305FB5D
:104A7000016003EBA70902EBA000CFE703EB0009FD
:104A80005018CBE701FB067101EB41054FF0030A1B
:104A90000BEB0501022200F080FEE81C584410F8E0
:104AA000010CA07594F83400C0071ED01948A18AE3
:104AB000008880B2814218D10020BDE8FE8F32B25A
:104AC00004F118002369CDE90102002539B2AA4694
:104AD0008B4612F09BFA0090BDF80000A082DDE941
:104AE0000102594612F02AFADBE7E07C78B1A4F81B
:104AF0003C90A4F83E80A4F84070A4F8426065643D
:104B000084F848A02046BDE8FE4F00F005B801201B
:104B1000D3E7000074AB02082DE9F04F044690F88B
:104B20003C10D0F8009090F83E0087B04FF0FF3670
:104B3000702907DAB4F940203546012A00D500254E
:104B400080310DE0902916DDB4F94020B4F904302D
:104B50000125521C9A4200DB0025A1F27F11494237
:104B6000C9B28846702809DAB4F94210012900D583
:104B70000026803010E00025FF21F2E790280DDDAF
:104B8000B4F94210B4F906200126491C914200DB19
:104B90000026A0F27F104042C7B201E00026FF27A6
:104BA00060690590A07D01900020834682460090B8
:104BB00094F83400400744D594F84810606C11FB19
:104BC00005014944022204A800F0F2FDA08894F8EF
:104BD000481010FB01F0616C022206FB00114944F1
:104BE00003A800F0E5FDA18894F8480011FB00F14E
:104BF000626C06FB012210FB05901118022202A82C
:104C000000F0D6FD94F83400800761D594F8480090
:104C1000616C10FB051300EB0902134413F8013C0F
:104C20000093A38813FB00F306FB03110A4412F858
:104C300001BC10FB0500014401EB090010F8010C58
:104C400045E0B4F84000B4F94220284401B204F130
:104C500018008146236912F0D9F90490B4F8420093
:104C6000B4F94010304402B254F8103F484612F0F4
:104C7000CDF90390608E2368304402B2208E284420
:104C800001B2484612F0C2F9029094F82400103C98
:104C900080071DD5B4F9422034F8400F284401B2F2
:104CA000484612F04BF900906088B4F90010304487
:104CB00002B2484612F042F983466088304402B29C
:104CC00034F84009284401B2484612F037F98246C8
:104CD00094F8340042464546800735D5019810FBCC
:104CE00008F30099C8F1FF0011FB0031C1F307215F
:104CF0001BFB08F61AFB0060C0F3072011FB07F34B
:104D0000C7F1FF0610FB06331B0AA375022907D85B
:104D1000022803D8002007B0BDE8F08F002702E08A
:104D2000022800D8FF270198022800D80022009806
:104D3000022800D8FF22BBF1020F00D80025BAF1EB
:104D4000020F03D8FF2501E0FF20A075DAB1FF2A8A
:104D50001BD0DDE904100FF0CBF90190BDB1FF2DA0
:104D600017D0DDE902102A460FF0C2F900903FB1DA
:104D7000FF2F10D001463A4601980FF0B9F9009084
:104D8000BDF8000009E00498E7E70598E5E7029818
:104D9000ECE70398EAE7BDF80400A0820120BAE737
:104DA0002DE9F0470446B0F908000A2700026062C6
:104DB000B4F90A000002A062B4F90C0090FBF7F508
:104DC000694201EB810100EB4106684205F10108EF
:104DD00000B201F057FB8246E84300B201F052FBFB
:104DE0008146C5F15A0000B201F04CFB0546C8F1FE
:104DF0005A0000B201F046FB0146C6F10A0000FB72
:104E00000AF3684301FB060009FB063292FBF7F246
:104E100090FBF7F051114011C4E90B10A07C12F087
:104E200009FA94F8341060F3000184F83410A07C7F
:104E300012F0F0F994F8341060F3410184F8341062
:104E4000A07C042823D0052821D006281FD021F0DB
:104E5000040184F8341021682162A16921F0E00185
:104E600060F30401A08860F39421E08860F35F514F
:104E7000A161E0894FF4001101EB5001B1FBF0F0AA
:104E8000A063FF20A075208AA082BDE8F08741F0D2
:104E90000401DEE72DE9F0473A4E89468246338821
:104EA000002723B13848394C056800200DE0002068
:104EB000BDE8F08700EBC00105EB8102116AA14259
:104EC00001DD491E1162401C80B29842F2D30024D9
:104ED0001FFA89F81BE004EBC40005EB800002898F
:104EE000904512D14168504612F02CF968B104EB9C
:104EF000C40005EB80077969386A08444FF47A7179
:104F00003862884206DD396204E0641CA4B230884D
:104F10008442E0D30FB13846CAE72C4601203288DC
:104F20000AE000EBC00105EB8101266A0B6AB3427F
:104F300000DA0C46401C80B29042F2D3606810B197
:104F4000204612F06FFC1DF0BFFC05464A46514654
:104F5000204612F0BBFC20B100202062606940B105
:104F60000EE02421204600F080FC4FF0004020623B
:104F70009DE728461DF0A2FC606108B90120606130
:104F8000204695E7D40400202C0500200100008075
:104F900010B510210C4800F076F912F055FC0446CB
:104FA0000FF0C6FF50B1002C07D008482060084819
:104FB00060600848A0600848E06010BD22460023F9
:104FC00006A00FF0B9FFFEE7C8240120BB7301085B
:104FD0007D760108C5770108957301084F75742027
:104FE0006F66206D656D6F727900000000210846C4
:104FF00013F0DEBB70B50C46054600261021204696
:1050000000F033FC2878012804D0022807D00428B7
:1050100008D00BE0288C2080688C608006E0686AED
:10502000606003E00A2060600020A0816A681AB115
:105030002146284690470646304670BD7FB5264C2F
:10504000C0686060C168002944D00BF055FA606800
:1050500090F8500040073DD4002569466068FFF78E
:10506000C9FF064660680BF047FA256061689DF845
:105070000E000877012805D00878042808D1BDF86B
:105080000C00C0B11DF020FC6168C968C1F87C014A
:1050900060680178012906D0022908D004290AD0C5
:1050A00003290DD00FE069460AF0F0FF0BE06946D6
:1050B0000AF0DCFE07E0694660680AF0A1FC02E045
:1050C00069460AF0C7F960680BF016FA002EC4D1E1
:1050D000656025607FBD0000B00400207FB50D46EF
:1050E000040003D110F024F8040025D02D4EF5B1B2
:1050F0000020ADF80000ADF80200204610F02AF8BC
:10510000401EADF80400204610F090F8401EADF8A7
:1051100006006A46294602A8FFF705F800280BD0CA
:10512000226912B102A920469047002510E0D4F868
:1051300078013040C4F878017FBD04EBC50100223E
:1051400002A85A31FFF717F80028F5D16D1CADB24F
:10515000D4F87801C0F30940A842EED8D4F8780119
:10516000C0F30941202903D204EBC10002A907E0E2
:105170003040C4F87801C0F3094004EBC000694630
:105180005A300CF098FDD4F878014FF4800101EB0F
:10519000B0604FEAB010C4F878010321E06A1BF058
:1051A000C5FF7FBDFFFF00FC70B50C461E461546CF
:1051B000114600F018F9AEB10022294620461EF033
:1051C0008CFB2946204662681EF07EFB616819B19F
:1051D0002A4620461EF081FB6560A068002800D1A9
:1051E000A56070BD29462046A2681EF076FB00220D
:1051F000294620461EF068FBA16819B12A462046C0
:105200001EF062FBA56060680028EAD1656070BD91
:1052100070B5054600F012F804460CE02146284619
:1052200000F020F806462146284600F0DCF820462B
:1052300015F076FE3446002CF0D170BD01004FF021
:10524000000000D04868704700B503460022FFF711
:10525000F5FF03E01846521C00F004F80100F9D1F4
:10526000104600BD002802D00068091D4058704754
:10527000002801D000684058704701004FF000003E
:1052800000D08868704700224260C91C21F00301E9
:1052900082600160704770B504460068083015F000
:1052A000E9FD050013D00146002220461EF015FB43
:1052B0002946204662681EF007FB616819B12A463C
:1052C00020461EF00AFB6560A06800B9A56028466C
:1052D00070BD2DE9F0410D4606002BD055B3FFF708
:1052E000ADFFA84204D13046FFF7D5FF04461EE0CB
:1052F0003068083015F0BEFD04001BD0294630464A
:10530000FFF7B6FF07460146224630461EF0DCFA9C
:105310003A46214630461EF0E0FA224629463046FB
:105320001EF0DBFA2A46214630461EF0CDFA204612
:10533000BDE8F0810020FBE770B504460068083046
:1053400015F098FD050013D00146002220461EF0FE
:10535000BBFA29462046A2681EF0BFFAA16819B11F
:105360002A4620461EF0B0FAA560606800B9656064
:10537000284670BD28B1416809B9806808B100208D
:105380007047012070472DE9F04116460D4607464B
:10539000B14226D01EB11146FFF76AFF01E0FFF7C8
:1053A0006CFF0446A5421CD02946384600F01BF885
:1053B0002A46214638461EF087FA224629463846B4
:1053C0001EF08BFA2A46314638461EF086FA3246DF
:1053D000294638461EF078FA06B9BD60002C00D187
:1053E0007D60BDE8F08170B50B460446FFF726FFEF
:1053F000002298420AD119462046FFF733FF606029
:1054000010B10022014624E0A26070BD2046FFF7E3
:1054100034FF9842194620460CD1FFF729FFA060BF
:1054200030B101462046BDE8704000221EF04CBA63
:10543000626070BDFFF71CFF054619462046FFF766
:1054400011FF06460246294620461EF03DFA2A462E
:1054500031462046BDE870401EF03FBA10B590427C
:10546000029C01DB204610BD884201DC184610BDBD
:10547000521AE41A401A604390FBF2F0184410BD2F
:1054800070B500200D49054601EBC002401CC0B2BA
:1054900095710228F8D30A4E002456F8340038B12A
:1054A00015F03EFD06EBC40046F83450857185804A
:1054B000641CE4B2102CF0D370BD0000580500202D
:1054C000E02401202DE9F041040017D00126102C22
:1054D0000AD82F49002001EBC0029279D20710D0E0
:1054E000401CC0B20228F6D32A4D4FF0FF300022F4
:1054F00005EBC2018B79DB0709D01AE00020BDE87B
:10550000F08101EBC002967151F83000F7E789880D
:10551000A1420ED305D105EBC200867155F83200C9
:10552000EDE7002804DB05EBC0039B88994200D21D
:1055300050B2521CD2B2102ADAD3002805DB05EB98
:10554000C0018E7155F83000D9E7002705EBC70080
:105550008079C00709D07F1CFFB2102FF6D300223C
:1055600013460DA00FF0E8FCFEE755F83700214682
:1055700015F002FD30B105EBC7018E718C8045F846
:105580003700BCE7002213460F480FF0D5FCFEE7BA
:1055900058050020E02401204E6F206672656520CA
:1055A0006275666665722E20496E63726561736509
:1055B000204C565F4D454D5F4255465F4D41585F0B
:1055C0004E554D2E00000000B4FC040810B500211B
:1055D0000C4A0B4652F83140844209D0491CC9B2EA
:1055E0000229F7D3084A002152F83140844203D1FE
:1055F00002EBC100837110BD491CC9B21029F3D35D
:1056000010BD000058050020E0240120002803D030
:105610000449884201D10020704750F8040C40082A
:1056200070470000500500200649054849F6FC7205
:105630004860016821F0010162F35F010160704779
:10564000E02501204805002030B500F0030401F0FA
:1056500003050346A54243D14DE00C781C704C78FD
:105660005C708C789C70CC78DC700C791C714C79F7
:105670005C718C799C71CC79DC710C7A1C724C7ADF
:105680005C728C7A9C72CC7ADC720C7B1C734C7BC7
:105690005C738C7B9C73CC7BDC730C7C1C744C7CAF
:1056A0005C748C7C9C74CC7CDC740C7D1C754C7D97
:1056B0005C758C7D9C75CC7DDC750C7E1C764C7E7F
:1056C0005C768C7E9C76CC7EDC760C7F1C774C7F67
:1056D0005C778C7F9C77CC7FDC772031203A20333D
:1056E000202ABAD804E011F8014B03F8014B521EEE
:1056F000002AF8D130BD4CB3C4F1040405E011F820
:10570000015B521E03F8015B641EFCB1002AF6D156
:105710001CE010C9203A10C310C910C351F8084B3F
:1057200043F8084B51F8044C43F8044C51F8104B23
:1057300043F8104B51F80C4C43F80C4C51F8084C02
:1057400043F8084C51F8044C43F8044C202AE0D8A4
:1057500002E010C9121F10C3042AFAD804E011F89D
:10576000014B03F8014B521E002AF8D130BD10B591
:10577000034604E011F8014B03F8014B521E002AC6
:10578000F8D110BD10B5034604E011F8014B03F841
:10579000014B521E002AF8D110BD10B5034604E09B
:1057A00011F8014B03F8014B521E002AF8D110BD2D
:1057B00010B5034604E011F8014B03F8014B521EEB
:1057C000002AF8D110BD10B5034604E011F8014BD2
:1057D00003F8014B521E002AF8D110BD10B5034644
:1057E00004E011F8014B03F8014B521E002AF8D1D6
:1057F00010BD10B5034604E011F8014B03F8014B4E
:10580000521E002AF8D110BD10F0030309D0C3F1D5
:10581000040303E0521E00F8011B5B1E0BB1002ABB
:10582000F8D101EB012303EB014303EB01630EE02D
:1058300008C0203A08C040F8083B40F8043C40F853
:10584000103B40F80C3C40F8083C40F8043C202A4F
:10585000EED801E008C0121F042AFBD802E000F8CD
:10586000011B521E002AFAD1704710F003034FF0BB
:10587000000219D0C3F1040303E0491E00F8012B14
:105880005B1E8BB10029F8D10EE004C0203904C0A2
:1058900040F8082B40F8042C40F8102B40F80C2C52
:1058A00040F8082C40F8042C2029EED801E004C070
:1058B000091F0429FBD802E000F8012B491E00292A
:1058C000FAD1704710F003024FF0FF0309D0C2F184
:1058D000040203E0491E00F8013B521E0AB10029F0
:1058E000F8D14FF0FF320EE004C0203904C040F878
:1058F000082B40F8042C40F8102B40F80C2C40F8F2
:10590000082C40F8042C2029EED801E004C0091F1F
:105910000429FBD802E000F8013B491E0029FAD116
:10592000704770B50C46054600263146284616F0ED
:10593000EBFE38B14168761C64F3CB21F6B24160CE
:10594000402EF2D340263146284616F0DDFE0028D0
:1059500007D04168761C64F3CB21F6B24160FF2E7C
:10596000F1D370BD2DE9FC470E4607461446154697
:105970004FEA12284FF0000A20E03146384616F070
:10598000C3FE81463146384616F04AFE05EB00203C
:1059900084B26A462146484600F0DAFA012805D06A
:1059A0005FEA08600CD52EB1002607E0BDF80000C4
:1059B000BDE8FC87384616F0F1FD0746002FDCD124
:1059C00024F4FE40292804D02A2802D0CDF804A0CF
:1059D00002E0034800680190BDF80400E8E7000019
:1059E00070AB02082DE9F84315460F4616464FEAFC
:1059F00012298046A1E0394616F086FE044640682A
:105A0000010570D481066ED0400505D425F4FE4210
:105A10003946404621F0F8FF25F4FE40302859D0A1
:105A200024DC112869D010DC052850D006DC0128C0
:105A30005DD0022845D004286CD148E0062846D025
:105A4000072844D0102865D157E0162858D006DC26
:105A5000122852D0132850D015285BD150E01728B7
:105A60004ED018284CD0202854D14CE060284AD081
:105A700010DC402838D006DC31282ED0322842D025
:105A8000332847D12CE042283DD0502832D054282A
:105A900040D138E048F28102811A904214D009DCEA
:105AA000722830D091282ED000F5FF40B0F5803F0D
:105AB00030D109E0012929D0022924D01F2929D178
:105AC00021E0A088400423E06068800020E0A088F6
:105AD00000041DE0606880021AE06068400217E080
